:100000000C9463000C948B000C948B000C946E0584
:100010000C946E050C946E050C948B000C948B0064
:100020000C948B000C948B000C948B000C948B0024
:100030000C948B000C948B000C948B000C948B0014
:100040000C94CC040C948B000C943C050C94160579
:100050000C948B000C948B000C948B000C948B00F4
:100060000C948B000C948B000000000024002700EF
:100070002A0000000008000201000003040700003D
:1000800000000000000000000000230026002900FE
:1000900000000000250028002B00040404040404D0
:1000A0000404020202020202030303030303010227
:1000B00004081020408001020408102001020408F6
:1000C0001020E6051B0811241FBECFEFD8E0DEBFCD
:1000D000CDBF11E0A0E0B1E0E4E9F0E102C005909D
:1000E0000D92A43FB107D9F723E0A4EFB1E001C01E
:1000F0001D92A531B207E1F710E0C2E6D0E004C0DE
:100100002197FE010E943708C136D107C9F70E9426
:10011000C5060C943D080C940000833081F028F44F
:10012000813099F08230A9F008958730A9F08830A5
:10013000C9F08430B1F4809180008F7D03C080913C
:1001400080008F7780938000089584B58F7784BD79
:10015000089584B58F7DFBCF8091B0008F77809319
:10016000B00008958091B0008F7DF9CFCF93DF93D9
:10017000282F30E0F901EE58FF4F8491F901E25544
:10018000FF4FD491F901E656FF4FC491CC23A1F063
:1001900081110E948D00EC2FF0E0EE0FFF1FEA5757
:1001A000FF4FA591B491EC91ED2381E090E009F42B
:1001B00080E0DF91CF91089580E090E0FACF1F9327
:1001C000CF93DF93282F30E0F901EE58FF4F849151
:1001D000F901E255FF4FD491F901E656FF4FC49162
:1001E000CC23A9F0162F81110E948D00EC2FF0E096
:1001F000EE0FFF1FE057FF4FA591B4918FB7F89412
:10020000EC91111108C0D095DE23DC938FBFDF91F4
:10021000CF911F910895DE2BF8CFCF93DF9390E01D
:10022000FC01E255FF4F249186569F4FFC018491BB
:100230008823D1F090E0880F991FFC01E859FF4F07
:10024000A591B491FC01E057FF4FC591D491611184
:100250000EC09FB7F8948C91E22FE0958E238C937B
:100260002881E223E8839FBFDF91CF9108958FB764
:10027000F894EC91E22BEC938FBFF6CF3FB7F89454
:1002800080913D0290913E02A0913F02B0914002C8
:1002900026B5A89B05C02F3F19F00196A11DB11DE1
:1002A0003FBFBA2FA92F982F8827BC01CD01620F1D
:1002B000711D811D911D42E0660F771F881F991FD8
:1002C0004A95D1F708958F929F92AF92BF92CF92A5
:1002D000DF92EF92FF924B015C010E943E016B01A5
:1002E0007C010E943E016C197D098E099F09683EC0
:1002F000734081059105A8F321E0821A9108A108B5
:10030000B10888EEC80E83E0D81EE11CF11C8114F0
:100310009104A104B10429F7FF90EF90DF90CF90F2
:10032000BF90AF909F908F900895AF92BF92CF9261
:10033000DF92EF92FF920F931F93CF93DF936C01A5
:100340007B018B01040F151FEB015E01AE18BF0886
:10035000C017D10759F06991D601ED91FC91019038
:10036000F081E02DC6010995892B79F7C501DF9150
:10037000CF911F910F91FF90EF90DF90CF90BF90A2
:10038000AF900895FC01538D448D252F30E0842FCC
:1003900090E0821B930B541710F0CF9608950197AD
:1003A0000895FC01918D828D981761F0A28DAE0F9A
:1003B000BF2FB11D5D968C91928D9F5F9F73928F21
:1003C00090E008958FEF9FEF0895FC01918D828D4D
:1003D000981731F0828DE80FF11D858D90E008951A
:1003E0008FEF9FEF0895FC01918D228D892F90E072
:1003F000805C9F4F821B91098F739927089581E438
:1004000092E00E94F30121E0892B09F420E0822F81
:10041000089580E090E0892B29F00E94FF0181116E
:100420000C9400000895FC01A48DA80FB92FB11DF4
:10043000A35ABF4F2C91848D90E001968F7399271A
:10044000848FA689B7892C93A089B1898C918370F8
:1004500080648C93938D848D981306C00288F389F1
:10046000E02D80818F7D80830895EF92FF920F931E
:100470001F93CF93DF93EC0181E0888F9B8D8C8D50
:1004800098131AC0E889F989808185FF15C09FB744
:10049000F894EE89FF896083E889F9898081837007
:1004A000806480839FBF81E090E0DF91CF911F91B6
:1004B0000F91FF90EF900895F62E0B8D10E00F5FD7
:1004C0001F4F0F731127E02E8C8D8E110CC00FB6AD
:1004D00007FCFACFE889F989808185FFF5CFCE0145
:1004E0000E941302F1CFEB8DEC0FFD2FF11DE35AAB
:1004F000FF4FF0829FB7F8940B8FEA89FB898081C8
:100500008062CFCFCF93DF93EC01888D8823B9F041
:10051000AA89BB89E889F9898C9185FD03C080810E
:1005200086FD0DC00FB607FCF7CF8C9185FFF2CF8B
:10053000808185FFEDCFCE010E941302E9CFDF91CC
:10054000CF9108952091360230913702281739074C
:1005500071F49091350280913402981741F0E09146
:100560003502F0E0EC50FE4F808190E008958FEF6F
:100570009FEF08950895EF92FF920F931F93CF93EB
:10058000DF93DC015C96ED90FC905D97E114F10443
:1005900079F481E090E013969C938E93129790E00B
:1005A00080E0DF91CF911F910F91FF90EF90089520
:1005B0005196ED91FC91529750968C915097982FAF
:1005C00090950FB75E962C915E97122F127021FDB9
:1005D0006095F8942081112319F1282B2083E701DD
:1005E0002197F1F728E0462F50E0308160FF1AC0D4
:1005F000382B3083E7012197F1F7BA01759567959C
:10060000215089F7112381F08081892380830FBFD6
:100610005C968D919C910197F1F781E090E0C1CFBC
:100620002923DCCF3923E5CF9081892BEFCF20918F
:100630003602309137022817390761F4809134026D
:100640002091350290E0805C9F4F821B91098F734F
:100650009927089590E080E0089520913602309126
:10066000370228173907B9F4909135028091340286
:10067000981789F0E0913502F0E0EC50FE4F808150
:100680002091350230E02F5F3F4F2F7333272093A7
:10069000350290E008958FEF9FEF0895089590E060
:1006A00080E00895CF93DF93EC0160E08E810E949B
:1006B000DF0061E08E810E94DF0060E08E810E9499
:1006C000DF008BE891E00197F1F7DF91CF9108957A
:1006D000CF92DF92EF92FF920F931F93CF93DF930E
:1006E0006C017C0187E0E80EF11CD0E0C0E0062F31
:1006F00010E0B8010C2E02C0759567950A94E2F7D8
:100700006170F70181917F010E94DF002196C43062
:10071000D10579F7C601DF91CF911F910F91FF901D
:10072000EF90DF90CF900C945203CF92DF92EF9234
:10073000FF920F931F93CF93DF93EC01F62E642F5C
:100740008C810E94DF008D818F3F19F060E00E9454
:10075000DF000F2D10E08F8584FF25C06E0187E03C
:10076000C80ED11CF12CE12CB8010E2C02C07595DD
:1007700067950A94E2F76170F60181916F010E941A
:10078000DF00FFEFEF1AFF0A88E0E816F10461F7D7
:10079000CE01DF91CF911F910F91FF90EF90DF90ED
:1007A000CF900C945203B80184E0759567958A95B3
:1007B000E1F7CE010E9468036F2DCE01DF91CF914A
:1007C0001F910F91FF90EF90DF90CF900C946803F2
:1007D00040E0682F8DEF92E00C949503CF93DF9368
:1007E000823029F490910C03986090930C038093CD
:1007F00010031092110380E48093120380E1809330
:10080000130380E58093140361E0809101030E944B
:100810000D01809102038F3F19F061E00E940D01EC
:1008200061E0809103030E940D01CDEFD2E09E01B3
:100830002D5F324080910C0384FD0BC084E090E07A
:1008400021962817390744F461E08E810E940D013A
:10085000EECF88E090E0F4CF8BE39DE00197F1F7D5
:1008600060E0809101030E94DF0060E0809103035B
:100870000E94DF00809102038F3F19F060E00E9428
:10088000DF0080910C0384FD39C063E08DEF92E0BE
:100890000E946803CBE4D6E4CE010197F1F763E050
:1008A0008DEF92E00E9468032197F1F763E08DEFEE
:1008B00092E00E94680383E592E00197F1F762E01D
:1008C0008DEF92E00E94680380910C0380620E9489
:1008D000E80384E080930D038CE00E94E80381E04C
:1008E0000E94E8038BE39FE10197F1F782E0809398
:1008F0000E0386E0DF91CF910C94E80380620E94A2
:10090000E8038BE496E40197F1F780910C03806291
:100910000E94E80383E592E00197F1F780910C03D0
:1009200080620E94E803D0CF90911003891710F0E5
:100930008FEF890FE82FF0E0E350FD4F8489806846
:100940000C94E80341E00E94950381E090E0089553
:10095000FB0101900020E9F73197AF01461B570BCF
:10096000DC01ED91FC910280F381E02D0994CF939D
:10097000DF93BC0181E492E00E94A804EC0160E3F3
:1009800071E081E492E00E94A8048C0F9D1FDF912A
:10099000CF9108950C94A8041F920F920FB60F9256
:1009A00011242F933F938F939F93AF93BF93809185
:1009B000390290913A02A0913B02B0913C023091F1
:1009C000380223E0230F2D3758F50196A11DB11DE4
:1009D000209338028093390290933A02A0933B020D
:1009E000B0933C0280913D0290913E02A0913F0263
:1009F000B09140020196A11DB11D80933D029093DC
:100A00003E02A0933F02B0934002BF91AF919F91ED
:100A10008F913F912F910F900FBE0F901F901895BF
:100A200026E8230F0296A11DB11DD2CF1F920F926F
:100A30000FB60F9211242F933F934F935F936F93B1
:100A40007F938F939F93AF93BF93EF93FF9381E433
:100A500092E00E941302FF91EF91BF91AF919F919D
:100A60008F917F916F915F914F913F912F910F9057
:100A70000FBE0F901F9018951F920F920FB60F92F6
:100A800011242F938F939F93EF93FF93E091510243
:100A9000F09152028081E0915702F091580282FD5C
:100AA0001BC0908180915A028F5F8F7320915B02EF
:100AB000821741F0E0915A02F0E0EF5BFD4F958F15
:100AC00080935A02FF91EF919F918F912F910F90F8
:100AD0000FBE0F901F9018958081F4CF1F920F9238
:100AE0000FB60F9211242F933F934F935F936F9301
:100AF0007F938F939F93AF93BF93EF93FF93E09177
:100B00003602F0913702309749F0A685B785858582
:100B1000968D91FF14C09C918923A1F4FF91EF91D0
:100B2000BF91AF919F918F917F916F915F914F9105
:100B30003F912F910F900FBE0F901F9018959C9191
:100B4000892361F7A389B4899C918589809589233C
:100B50008C93868997890197F1F7608D718DA685B1
:100B6000B785558538E020E0CB010197F1F7822F5A
:100B700090E095958795282F4C91452309F02068A2
:100B8000315091F7868D81FD20958091340290E05F
:100B900001968F73992730913502381799F0A091FB
:100BA0003402B0E0AC50BE4F2C9380933402828D5F
:100BB000938D0197F1F7A389B4898C919589892B3D
:100BC0008C93ACCF868D8160868FF1CFCF92DF92F0
:100BD000EF92FF92109244021092430298EEC92EB7
:100BE00093E0D92EE12CF12CC0924502D09246021E
:100BF000E0924702F092480284E091E09093420232
:100C00008093410285EC90E090934E0280934D02D8
:100C100084EC90E09093500280934F0280EC90E03F
:100C2000909352028093510281EC90E09093540291
:100C30008093530282EC90E0909356028093550289
:100C400086EC90E0909358028093570210925A02DB
:100C500010925B0210925C0210925D0210920003EF
:100C60001092FF0288E291E09093FE028093FD02D1
:100C700087E0809301038FEF8093020386E08093E7
:100C8000030385E08093040384E08093050383E0FD
:100C90008093060382E0809307031092080310926A
:100CA000090310920A0310920B0310920C0381E0C7
:100CB0000E94EE031092E1021092E002C092E20262
:100CC000D092E302E092E402F092E50286E191E044
:100CD0009093DF028093DE021092F5021092F402EC
:100CE0001092F7021092F6021092F9021092F80296
:100CF0001092FB021092FA026091FC026E7F6D7FEF
:100D00006093FC026695617081E068270E94DF00B5
:100D100061E081E00E940D01EFEAF0E0E491E093F0
:100D2000EE02EBE9F0E0E491F0E0EE0FFF1FE05798
:100D3000FF4F859194919093F0028093EF0260E0D1
:100D400080E00E940D018091FC0281FD04C061E001
:100D500080E00E94DF001092EA02EEEAF0E0E49107
:100D6000E093EB02EAE9F0E0E491F0E0EE0FFF1F20
:100D7000EA57FF4F859194919093ED028093EC0296
:100D8000FF90EF90DF90CF900895789484B58260C3
:100D900084BD84B5816084BD85B5826085BD85B51F
:100DA000816085BD80916E00816080936E0010929D
:100DB0008100809181008260809381008091810018
:100DC00081608093810080918000816080938000A9
:100DD0008091B10084608093B1008091B000816007
:100DE0008093B00080917A00846080937A00809133
:100DF0007A00826080937A0080917A00816080938B
:100E00007A0080917A00806880937A001092C10005
:100E100060E089E00E940D0161E08DE00E940D011B
:100E2000E0915102F091520282E08083E0914D0204
:100E3000F0914E021082E0914F02F09150028FEC3F
:100E4000808310925902E0915502F091560286E09B
:100E50008083E0915302F09154028081806180830D
:100E6000E0915302F0915402808188608083E09188
:100E70005302F0915402808180688083E091530294
:100E8000F091540280818F7D808382E00E94EE0386
:100E900080E00E94940463E371E08DEF92E00E9491
:100EA000CA0481E00E9494046AE371E08DEF92E04D
:100EB0000E94CA0464E670E080E090E00E94630152
:100EC00081E00E94E8038BE39FE10197F1F7C0E026
:100ED000D0E088E00E94B600019709F099C080E058
:100EE0000E94940466E471E08DEF92E00E94CA04CF
:100EF00081E00E94940468E571E08DEF92E00E9429
:100F0000CA0489E00E94B600019709F07CC080E025
:100F10000E9494046AE671E08DEF92E00E94CA0498
:100F200081E00E9494046BE771E08DEF92E00E94F3
:100F3000CA0461E08DE00E94DF008CE891E00E942D
:100F4000B70464E670E080E090E00E94630186E907
:100F500091E00E94B70464E670E080E090E00E94B7
:100F6000630160EA71E081E492E00E94CA0462E2F7
:100F700081E492E00E94350269EA71E081E492E046
:100F80000E94CA0462E281E492E00E94350260E3BA
:100F900071E081E492E00E94A80460E971E080E0E1
:100FA00090E00E94630187EB91E00E94B70464E641
:100FB00070E080E090E00E9463016AE181E492E0E9
:100FC0000E94350268EE73E080E090E00E946301C9
:100FD00086ED91E00E94B70464E670E080E090E066
:100FE0000E94630164E670E080E090E00E9463018B
:100FF000209709F46ECF0E94FF01882309F469CF7E
:101000000E94000066CF60E08DE00E94DF00F0CF1C
:1010100080E00E94940466E471E08DEF92E00E940B
:10102000CA0481E00E94940460EE71E08DEF92E0CA
:101030000E94CA04DDCF86E191E09093DF028093A5
:10104000DE0280913602909137028E5D924071F4FB
:10105000E091F102F091F20290818091F30280958B
:101060008923808310923702109236020895EE0F82
:10107000FF1F0590F491E02D099410E0C2E6D0E046
:1010800004C0FE010E9437082196C336D107C9F774
:04109000F894FFCF02
:101094000000000035029501C2018202F301D10172
:1010A400E50100000000BB0295014F03BA021703DB
:1010B4002D03A20200000000A20495014F034E0379
:1010C4000D0A0053595354454D0053544152544949
:1010D4004E472E2E2E00446574656374696F6E202E
:1010E40053797374656D20002020202041435449B6
:1010F400564154454420202020005665676574619C
:1011040074696F6E4572726F72210053656E646903
:101114006E6720534D532E2E2E2E2E0041542B43FA
:101124004D47443D310041542B434D47463D31002A
:1011340041542B434D47573D002B3233332A2A2A3F
:101144002A2A2A2A2A2A00416C657274203A2056D7
:10115400454745544154494F4E2044455445435412
:1011640045442121210041542B434D53533D31002B
:1011740020202044454143544956415445442020AD
:041184002020200007
:00000001FF
